:020000040000FA
:10000000680200109D020000B1020000B30200006F
:10001000B5020000B7020000B902000000000000B5
:10002000000000000000000000000000BB02000013
:10003000BD02000000000000BF020000C10200007D
:10004000C3020000C3020000C3020000C30200009C
:10005000C3020000C3020000C3020000C30200008C
:10006000C3020000C3020000C3020000C30200007C
:10007000C3020000C3020000C3020000C30200006C
:10008000C3020000C3020000C3020000C30200005C
:10009000C3020000C3020000C3020000C30200004C
:1000A000C3020000C3020000C3020000C30200003C
:1000B000C3020000C3020000C3020000C30200002C
:1000C000C3020000C3020000C302000000F002F8F7
:1000D00000F03AF80AA090E8000C82448344AAF1A8
:1000E0000107DA4501D100F02FF8AFF2090EBAE8A6
:1000F0000F0013F0010F18BFFB1A43F0010318475C
:100100000C0200002C020000103A24BF78C878C10D
:10011000FAD8520724BF30C830C144BF04680C600D
:10012000704700000023002400250026103A28BF55
:1001300078C1FBD8520728BF30C148BF0B60704759
:100140001FB51FBD10B510BD00F07CF81146FFF7BC
:10015000F7FF00F03DF800F09AF803B4FFF7F2FF64
:1001600003BC00F0CDF800004FF080703149C86347
:1001700000203149086004E02F480068401C2E49E7
:1001800008602D48006842F210718842F4D34FF0A5
:1001900080602849C8618010886370474FF0807084
:1001A0002449C86300202449086004E0224800680C
:1001B000401C214908602048006842F210718842C2
:1001C000F4D34FF080601B498861801088637047CA
:1001D00000201A494860C8601648006840F08060F6
:1001E000144908600846006A40F0807008621FE009
:1001F000FFF7D4FF00201049086004E00E480068B3
:10020000401C0D4908600C4800680D498842F5D330
:10021000FFF7AAFF00200849086004E006480068CC
:10022000401C054908600448006805498842F5D328
:10023000DEE7000000C009200000001000C00240FE
:10024000E0930400754600F04FF8AE46050069469D
:10025000534620F00700854618B020B500F032F86C
:10026000BDE820404FF000064FF000074FF00008B7
:100270004FF0000B21F00701AC46ACE8C009ACE838
:10028000C009ACE8C009ACE8C0098D467047044617
:10029000AFF300802046FFF760FF00000C484FF0EE
:1002A000553101600B484FF0553101600A48004755
:1002B000FEE7FEE7FEE7FEE7FEE7FEE7FEE7FEE716
:1002C000FEE7FEE705480649044A064B7047000072
:1002D000A8C10F40ACC10F40CD0000006800001065
:1002E0006802001068000010004870470400001009
:1002F000704770477047704700000000FFFFFFFF26
:1003000001491820ABBEFEE7260002002C030000C6
:10031000000000100400000008010000300300008D
:10032000040000106402000024010000000000002E
:04000005000000CD2A
:00000001FF
