:020000040000FA
:1000000078020010710200008502000087020000E3
:10001000890200008B0200008D0200000000000039
:100020000000000000000000000000008F0200003F
:100030009102000000000000930200009502000001
:10004000970200009702000097020000970200004C
:10005000970200009702000097020000970200003C
:10006000970200009702000097020000970200002C
:10007000970200009702000097020000970200001C
:10008000970200009702000097020000970200000C
:1000900097020000970200009702000097020000FC
:1000A00097020000970200009702000097020000EC
:1000B00097020000970200009702000097020000DC
:1000C00097020000970200009702000000F002F87B
:1000D00000F03AF80AA090E8000C82448344AAF1A8
:1000E0000107DA4501D100F02FF8AFF2090EBAE8A6
:1000F0000F0013F0010F18BFFB1A43F0010318475C
:10010000DC010000FC010000103A24BF78C878C16F
:10011000FAD8520724BF30C830C144BF04680C600D
:10012000704700000023002400250026103A28BF55
:1001300078C1FBD8520728BF30C148BF0B60704759
:100140001FB51FBD10B510BD00F066F81146FFF7D2
:10015000F7FF00F025F800F084F803B4FFF7F2FF92
:1001600003BC00F0B3F800002348006840F008002A
:100170002249C1F8C4004FF05000214908604FF0F7
:100180008300204908734FF0000008714FF01A00F7
:1001900008704FF0030008734FF0070008727047B3
:1001A000FFF7E2FF26E018481849086010E000BF9A
:1001B0001448007D00F020002028F9D11348006881
:1001C00000781049087011480068401C0F49086009
:1001D0000E48006800780028E9D10D49086004E065
:1001E0000B480068401C0A49086009480068094932
:1001F0008842F5D9D7E70000C4C00F4000C00F40C7
:1002000000C0024000C000400000001014000010B8
:100210001000001080380100754600F04FF8AE461F
:1002200005006946534620F00700854618B020B502
:1002300000F032F8BDE820404FF000064FF0000714
:100240004FF000084FF0000B21F00701AC46ACE87E
:10025000C009ACE8C009ACE8C009ACE8C0098D46EB
:1002600070470446AFF300802046FFF776FF00009A
:100270000C484FF0553101600B484FF0553101608B
:100280000A480047FEE7FEE7FEE7FEE7FEE7FEE777
:10029000FEE7FEE7FEE7FEE705480649044A064B8F
:1002A00070470000A8C10F40ACC10F40CD00000056
:1002B00078000010780200107800001000487047A5
:1002C000180000107047704770470000014918205F
:1002D000ABBEFEE7260002007047000000030000EE
:1002E00000000010180000000801000018030000C2
:1002F000180000106002000024010000FFFFFFFF53
:1003000048656C6C6F20776F726C640D0A0000009A
:080310000000000000000000E5
:04000005000000CD2A
:00000001FF
