:020000040000FA
:10000000B0020010110E0000250E0000270E0000A7
:10001000290E00002B0E00002D0E00000000000035
:100020000000000000000000000000002F0E000093
:10003000310E000000000000330E0000350E0000FD
:10004000370E0000370E0000370E0000370E00009C
:10005000370E00004F020000370E0000370E000080
:10006000370E0000370E0000370E0000370E00007C
:10007000370E0000B7010000370E0000370E0000F9
:10008000370E0000370E0000370E0000370E00005C
:10009000370E0000370E0000370E0000370E00004C
:1000A000370E0000370E0000370E0000370E00003C
:1000B000370E0000370E0000370E0000370E00002C
:1000C000370E0000370E0000370E000000F002F877
:1000D00000F047F80AA090E8000C82448344AAF19B
:1000E0000107DA4501D100F03CF8AFF2090EBAE899
:1000F0000F0013F0010F18BFFB1A43F0010318475C
:10010000B4210000D4210000103A24BF78C878C17F
:10011000FAD8520724BF30C830C144BF04680C600D
:10012000704700000023002400250026103A28BF55
:1001300078C1FBD8520728BF30C148BF0B60704759
:10014000662902F06B80002070471FB500F0D2F8DE
:1001500004000020002101F063FAE0601FBD10B52B
:1001600010BD00F0E9FD1146FFF7EFFF00F0C8F801
:1001700000F007FE03B4FFF7F2FF03BC00F072FECD
:100180001448006840F04040124908603C20486034
:100190001E201149C860A02008600120C8610D2000
:1001A0000121814042094FF0E02303EB8202C2F8B3
:1001B000001100BF704701200849087006484068D8
:1001C0000749087004488068087001200249C86126
:1001D0007047000000C00240000002400000001014
:1001E000010000102648006840F008002549C1F8C9
:1001F000C4002548006820F0F00023490860084644
:10020000006840F0500008604FF083001F490873F9
:100210004FF0000008714FF01A0008704FF0030013
:1002200008734FF0070008724FF0030048604FF06A
:1002300005004FF0010101FA00F14FEA50124FF0B2
:10024000E02303EB8202C2F8001100BF70470F49A0
:10025000886800F0060000F00201022903D1FF21A6
:100260000B4A11700AE000F00401042906D1074985
:100270000978084A1170FF21074A11707047000081
:10028000C4C00F4000C00F4000C0024000C000408A
:100290000500001002000010040000100FB41CB58F
:1002A000074B06AA7B4469460090059800F00FF8BA
:1002B0000020694600F040FC1CBC5DF814FB000007
:1002C0009108000001694A1C02610878704700B576
:1002D0008FB0CDE901310021059105497944CDE97F
:1002E00003101146684600F090F90FB000BD000001
:1002F000E5FFFFFF0048704770000010FFFFFFFFA1
:100300009348006840F48030914908604FF4803091
:100310008861FFF767FFFFF733FF00208D49087002
:1003200014E100208C49086063E04FF48030884974
:10033000C86100208949086004E088480068401CC2
:100340008649086085480068B0F57A7FF5D30120BA
:100350008349886000BF7F4800780028FBD00020D8
:100360007C490870C0207E49886000BF79480078C9
:100370000028FBD00020774908707A4800787A4935
:10038000086000207649886000BF72480078002825
:10039000FBD000206F4908707248007873490860EC
:1003A000714800780007000D6F4908606F480068C9
:1003B000096808436D4908606D4800680968084489
:1003C0006B4908604FF480306149886100206349BF
:1003D000086004E061480068401C604908605F48AC
:1003E0000068B0F57A7FF5D35B480068401C5A4935
:1003F000086059480068082897D35D480068C0081D
:100400005B4908600846006801F028FE0546594926
:1004100001F038FE0446584901F05EFD5749086076
:100420000846006801F02CFD0646554A554B01F080
:100430003FFB0446544A554B01F0E2F9804601F077
:1004400005F9534908600846006801F019FD0646A1
:100450004B4A4C4B01F02AFC044601F0F7F84D4999
:1004600008600846006801F00BFD044622460B4672
:1004700049A14B48FFF712FF00203D490860494859
:10048000494908601DE048480068007847490870FD
:1004900045480068401C4449086000BF4448007853
:1004A0000028FBD00020424908702B49086004E076
:1004B00029480068401C2849086027480068C82867
:1004C000F6D33948006800780028DCD1344839492F
:1004D00008601DE0374800680078344908703548E6
:1004E0000068401C3349086000BF3148007800288C
:1004F000FBD000202E4908701749086004E0164818
:100500000068401C1449086013480068C828F6D3E6
:100510002848006800780028DCD11049086004E011
:100520000E480068401C0D4908600C4800684FF6F2
:10053000E8518842F4D30D201C49087000BF1C48C4
:1005400000780028FBD0002019490870E9E6000077
:1005500000C0092000000010140000101800001056
:1005600000000240010000101C00001020000010DC
:10057000400000100000A54500F07F453400001049
:100580000AD7A3703D127140CDCCCCCCCC56A5403F
:10059000380000103C00001025332E3266000000A9
:1005A00044000010090000102400001000C00040AA
:1005B000050000102800001070B504468569006829
:1005C000C10601D5302600E02026C00708D070BD46
:1005D000D4E9012130469047206A00F101002062F1
:1005E0006D1EF5D570BD70B5044685690078C007ED
:1005F00008D170BDD4E9012120209047206A00F184
:10060000010020626D1EF5D570BD2DE9F0474FF059
:10061000000A89460446C0F820A02046E1688847C1
:10062000002876D0252806D0D4E901219047206AF9
:10063000401C2062F1E7E168204600258847C4F8A5
:100640001CA006460027C4F818A02A2E09D0304660
:1006500000F0DEFF38B304EB8708303EC8F81860BE
:1006600019E059F8041B204604EB87029161E16808
:100670008847012F064618D1E069002820DA25F0C6
:1006800020051DE0D8F8180000EB800006EB4000C4
:100690003038C8F818002046E1688847064600F060
:1006A000B7FF0028EED1012F0AD02E2E08D1204608
:1006B000E16888477F1C0646022F45F02005C4DB11
:1006C000A069002803DA404245F00105A061E8076F
:1006D00001D025F01005B6B1A6F14100192802D8C5
:1006E000203645F400654A463146204625604D4691
:1006F000FFF726FD58B1012806D0ED1D25F00700B3
:1007000000F1080989E704E005F1040985E73046AE
:100710008AE7206ABDE8F08770472DE9FF4F0C4655
:100720001E464FF0FF378BB0D2E90001DDF8608044
:100730000A908A46C1F30A5505B93D46002108468C
:100740004FF00000BAF1000F00F4400005DA00EBB2
:1007500080004FF4400101EA50004FEA9059B9F18E
:10076000010F00DDB9460A9850EA4A000ED044F65F
:100770001050A5F2FF3545432F14B8F1000F1ED0DD
:100780007542291E1EDDC9F100021CE0B8F1010FFF
:100790004FF0000001D0302103E0F24305E0215486
:1007A000401CB042FBDB30460022002121540B9953
:1007B000C1F80880C1E900200FB0BDE8F08FBD1B73
:1007C0006D1CDEE74A4600DA694206A800F03EFAF0
:1007D00006AB07CB03AB07C350460A9900F049FBB1
:1007E0008DE80700A0F500501F3800900398002DF9
:1007F00009DD42F21F014A46084403A903906846F6
:1008000000F0A8FD08E0A0F500504A461F3803A9F3
:100810000390684600F0B2FD8DE807000004000C6C
:1008200003D04FF0FF30410800E01046B8F1000F50
:1008300003D00022009215461FE0751E06D400F07A
:1008400080F902F1300262556D1EF8D5B3460122DF
:10085000084302D000227F1C04E02078302801D118
:1008600000227F1E002A099787D01DE0112D07DA8C
:1008700000F067F9303262556D1C50EA0102F5D183
:1008800008430FD10021681E05E0235C625C6354BD
:10089000491C2254401E8142F7DBAB46A81B401E78
:1008A000099001E0009848B1002004F80B000B9873
:1008B000099AC0F80880C0E9002B7DE711264FF0A7
:1008C00000085AE72DE9F04F88460446D21D22F071
:1008D000070191B0D1E90001CDE90A0100F084FEE1
:1008E00002460B98C00F01D02D2007E02068810739
:1008F00001D52B2002E0202101EAC000032A099043
:1009000001D0072A05DB03464146204600F05EF988
:100910000FE12078800601D5E06900E00620B8F1FB
:10092000650F814606D0B8F1660F18D0B8F1670F91
:1009300072D132E00020B9F1110F009001DB1123D8
:1009400001E009F101030AAA01A90CA8FFF7E5FEDD
:10095000DDE90C70002609F10105834648E001201D
:100960004B4600904FF000470AAA01A90CA8FFF7D8
:10097000D4FEDDE90DB00C995D46002618B909F1E9
:10098000010001EB0005B9EB050003D4C0F1FF360F
:1009900009F10105A5EB09002BE0B9F1010F01DA1E
:1009A0004FF001090020B9F1110F0090484601DD18
:1009B000112300E003460AAA01A90CA8FFF7ADFE27
:1009C000DDE90C704D4600268346207800070AD4E6
:1009D000AB4500DA5D4601A8012D04DD411911F88F
:1009E000011C302907D04F4502DA17F1040F04DA51
:1009F0000120824610E06D1EEEE7002F02DCED1BA9
:100A00003E4403E0781CA84200DD0546A7EB060043
:100A100000F1010A4FF000472078000703D4AA45EF
:100A200001DB4FF0FF3A0021B7F1004F0DF1430811
:100A30008DF8431023D002202B23002F01DA7F42B0
:100A40002D234FF00A0C011EA0F1010000DC4FB174
:100A500097FBFCF10CFB11720F4602F1300208F813
:100A6000012DF0E7A8F1010003702188090501D5E7
:100A7000452100E06521A0F1010800F8011C09985A
:100A80000FA9A1EB080707F1070700B1012000EB50
:100A9000050101EBEA70A1693844A1EB0000A0F167
:100AA0000100A0612078C00602D42046FFF784FD33
:100AB000099830B1D4E901219047206A00F1010082
:100AC00020622078C00620D52046FFF775FD1CE087
:100AD000002E04DBB34502DD01A8805D00E030207C
:100AE000D4E901219047206A761C401CBAF1010A22
:100AF00020620AD1FFF7FEFBC0680168405CD4E9C0
:100B000001219047206A401C2062281EA5F10105A2
:100B1000DEDC07E0D4E9012118F8010B9047206AD8
:100B2000401C2062381EA7F10107F3DC2046FFF7C6
:100B30005AFD022011B040E60A6802F8010B0A6073
:100B4000704730B5B0F10A024FEA900E71F1000320
:100B50004EEA817EB0EB0E0061EB91014FEA101E70
:100B60004EEA017E10EB0E0041EB11114FEA102E00
:100B70004EEA016E10EB0E0041EB11214FEA104ED0
:100B80004EEA014E10EB0E0041EB1141401841F1CD
:100B900000014FEAD00040EA41704FEAD10110EB6A
:100BA00080054FEA810444EA907444EB01046D1916
:100BB00044EB0404521BA3414FF0000348BF0A3228
:100BC00000D530BD401C41F1000130BD2DE9F041A0
:100BD0001F46044603260168072A01F4006004DB6F
:100BE00008B116A505E016A503E008B115A500E0BB
:100BF00015A521F010002060A069C01EA0610FB1F2
:100C0000401EA0612046FFF7D7FC4FB1D4E9012177
:100C100038469047206A401C2062C01C206206E0D3
:100C2000206AFAE7D4E9012115F8010B9047761EF6
:100C3000F8D22046FFF7D7FCBDE8F0814E414E00C8
:100C40006E616E00494E4600696E66002DE9F04700
:100C5000814616468AB035487844D0E9002380683A
:100C60000092CDE90130314878440C38D0E90223B4
:100C7000006903924FF03702CDE9043041F69B3012
:100C8000014491FBF2F0A0F1800502FB10141B3C23
:100C900002D56442012000E00020DFF890A08046E9
:100CA0000027FA44AAF1C60A0DE0E00709D032464F
:100CB000684607EB47010AEB810100F05FFB8DE816
:100CC000070064107F1C002CEFD1184F7F44B43F05
:100CD00017E0E80713D007EB04100DF1180A90E8AD
:100CE0000E00AAE80E00C068F04201D198190890E1
:100CF000324606A903A800F041FB03AB07C36D1001
:100D0000641C002DE5D132466946B8F1000F03A8F6
:100D100002D000F01FFB01E000F030FBC9E9000148
:100D2000C9F808200AB0BDE8F087000040160000AE
:100D300000487047500000107546FFF7F9FFAE46B7
:100D400005006946534620F00700854618B020B5D7
:100D500000F072F8BDE820404FF000064FF00007A9
:100D60004FF000084FF0000B21F00701AC46ACE853
:100D7000C009ACE8C009ACE8C009ACE8C0098D46C0
:100D800070470446AFF300802046FFF7F3F90000F8
:100D90004FF0013C50F8042B51F8043B9A4221D10A
:100DA000A2EB0C03934313EACC1317D150F8042B96
:100DB00051F8043B9A4215D1A2EB0C03934313EA7A
:100DC000CC130BD150F8042B51F8043B9A4209D1B3
:100DD000A2EB0C03934313EACC13DBD04FF00000DB
:100DE000704700BFD01A01BAB1FA81F101F01801C1
:100DF00022FA01F0CB40C1F12001DBB2C0B2C01A2F
:100E00002CFA01F3D11A914311EAC311E6D17047CC
:100E10000C484FF0553101600B484FF055310160DF
:100E20000A480047FEE7FEE7FEE7FEE7FEE7FEE7CB
:100E3000FEE7FEE7FEE7FEE705480649044A064BE3
:100E400070470000A8C10F40ACC10F40CD000000AA
:100E5000B0000010B0020010B000001070477047E2
:100E60007047000001491820ABBEFEE726000200D3
:100E700070475FEA400C08BF91F0000F4FEA8C23E7
:100E80004FEAC12243EA51514FEA1C5018BF00F506
:100E9000F0404FEA300018BF41F000415FEA6C5C5F
:100EA00000F02980BCF1FF3F08BF40F08040704750
:100EB000130C06BF12044FF0100C4FF0000C130E71
:100EC00004BF12020CF1080C130F04BF12010CF145
:100ED000040C930F04BF92000CF1020CD30F04BF5B
:100EE00052000CF1010C11464FF00002A0F11F005E
:100EF000A0EB0C00704711F0004F08BF704731F0B5
:100F000000413FF4D5AF0B0C06BF09044FF0100CA5
:100F10004FF0000C0B0E04BF09020CF1080C0B0F74
:100F200004BF09010CF1040C8B0F04BF89000CF104
:100F3000020CCB0F04BF49000CF1010CCCF12003D3
:100F4000A0EB0C0022FA03F302FA0CF241EA0301CF
:100F500000F10100704720F07F4C80EA030023F08D
:100F60007F47ACEB070303F57C5300F0004003F12F
:100F7000FF032DE980494FEA154B09B44FEA1443AA
:100F800025EA0B4E24EA03480FF2042606EB13274A
:100F900049083E785FEA320203FB0667C7F500079F
:100FA00007FB06F64FEA54374FEAD64606F102062B
:100FB00007FB066CCCF1005C4FEA1C472CEA074C9F
:100FC00007FB06F40CFB06F504EB15464FEA9616F4
:100FD00034BF00204FF000404FEAD13706FB07FC3A
:100FE0004FEA1C4C0CFB0BF7D21B03FB0CF761EB1D
:100FF00007010CFB0EF7B0EB074072EB17420CFB3E
:1010000008F734BFA2EB0742B2EB074261EB17418E
:101010004FEA0C444FEA910706FB07FC4FEA1C4CD1
:101020000CFB0BF7B0EBC74072EB573203FB0CF72E
:1010300034BFA2EBC742B2EBC74261EB57310CFBA6
:101040000EF7B0EBC70072EB57720CFB08F734BF1A
:10105000A2EBC702B2EBC70261EB5771039F4FEAE5
:10106000816141EA921104EBCC044FEAD1374FEA97
:10107000826206FB07FC42EA90124FEA80604FEA68
:101080001C4C0CFB0BF7D21B03FB0CF761EB0701AD
:101090000CFB0EF7B0EB074072EB17420CFB08F7A6
:1010A00034BFA2EB0742B2EB074261EB17414FEAB4
:1010B0008C554FEA910704EB9C2406FB07FC4FEA92
:1010C0001C4C0CFB0BF7B0EBC74072EB573203FB29
:1010D0000CF734BFA2EBC742B2EBC74261EB57310A
:1010E0000CFB0EF7B0EBC70072EB57720CFB08F766
:1010F00034BFA2EBC702B2EBC70261EB577115EB2D
:101100004C254FEA816141EA92114FEA82624FEA2F
:10111000D13742EA901206FB07FC44F100044FEA83
:1011200080604FEA1C4C0CFB0BF7D21B03FB0CF747
:1011300061EB07010CFB0EF7B0EB074072EB1742B7
:101140000CFB08F734BFA2EB0742B2EB074261EB9E
:10115000174115EB1C154FEA813141EA92414FEAE4
:10116000823242EA90424FEA80304FEA0C7644F1F4
:10117000000448EA03434EEA0B484FF0000EB2EB7E
:10118000080C71EB030724BF624639464EEB0E0E86
:101190004FF0000B0018524149414BEB0B0BB2EBE7
:1011A000080C71EB03077BF1000B24BF6246394644
:1011B0004EEB0E0E4FF0000B0018524149414BEB25
:1011C0000B0BB2EB080C71EB03077BF1000B24BF98
:1011D000624639464EEB0E0E51EA020718BF46F042
:1011E000010616EB0E7655F1000254F1000103D50D
:1011F000BDE88901BDE80088BDE88901BDE8004877
:10120000B619524141EB0101A3F1010370478080FF
:101210007F7E7D7C7B7A7978777676757473727150
:1012200071706F6E6E6D6C6C6B6A6A696868676608
:1012300066656464636362616160605F5F5E5E5D9A
:101240005D5C5C5B5B5A5A5959585857575656550E
:1012500055555454535352525251515050504F4F70
:101260004F4E4E4D4D4D4C4C4C4B4B4B4A4A4A49C0
:101270004949484848474747474646464545454403
:101280004444444343434342424242414141002B90
:1012900026D4770021D01CB54FEA370703B44FF0AE
:1012A00010004FF010014FF000000FBCBDE81040DF
:1012B0000BF1010BBBF1010F08BF5FEA170722BF5B
:1012C00012F1010211F101014FF0004143F100035D
:1012D00000F0004043EA00007047F9D35708DAE70E
:1012E00046EA064613F1400F4FEA16461FDD13F19A
:1012F000200FDFBF16430A46002120335B42C8D0CF
:10130000C3F1200746EA064602FA07F74FEA1646F7
:1013100046EA0706C3F1200722FA03F201FA07F7AB
:1013200021FA03F14FF0000342EA0702B1E746EA6F
:10133000020646EA06464FEA164646EA0106BCBFE2
:1013400046EA0646360C4FF000034FF000024FF01D
:1013500000019EE72DE9C048934630B491E838007B
:1013600007C831EA400C48BF34EA430C03D5FFF705
:10137000F2FDFFF78CFFF0BCBDE800882DE9C04806
:10138000934630B491E8380007C810F0804F08BF8A
:1013900013F0804F03D100F005F8FFF778FFF0BCA1
:1013A000BDE8008820F07F4780EA030023F07F4CEF
:1013B00007EB0C03A3F57C5300F00040A3F1FE0300
:1013C00092F0000F00F0B38095F0000F00F07780EE
:1013D0002DE901494FEA11404FEA144621EA00483D
:1013E00000FB06FC24EA064708FB06F607FB08F8A4
:1013F00000FB07F718EB06484CEB164C4FEA124B74
:1014000018EB07484FEA15464CEB174022EA0B4E03
:101410000BFB06FC25EA06470EFB06F607FB0EFE55
:101420000BFB07F71EEB064E4CEB164C4FF000067D
:101430001EEB074E4CEB174B18EB0B0840F100006E
:1014400018EB0E0B58EB000840F100008F1A4FF01C
:1014500000013CBFC943661B14BFB5EB040C00215F
:101460003CBFC943F61B4FEA17444EEA8E0E27EAEB
:1014700004454FEA1C4704FB07622CEA074C05FBB6
:1014800007F70CFB05F604FB0CFC16EB074642EBDA
:10149000174216EB0C4642EB1C421BEB060658EBC0
:1014A0000202414146EA9E0601D5BDE80189B6190E
:1014B000524141EB0101A3F10103BDE801894FEA6B
:1014C00014454FEA114724EA054621EA074C05FB7B
:1014D00007F406FB07F70CFB06F105FB0CFC11EB10
:1014E000074144EB17444FEA124711EB0C4144EB20
:1014F0001C4422EA074C05FB07F206FB07F70CFB2E
:1015000006F605FB0CFC16EB074642EB174216EB02
:101510000C4642EB1C456A1854F1000148BF704765
:10152000B619524141EB0101A3F10103704795F057
:10153000000F37D04FEA11424FEA144721EA024622
:1015400024EA074C02FB07F106FB07F70CFB06F445
:1015500002FB0CFC14EB074441EB17414FEA154723
:1015600014EB0C4441EB1C4125EA074C02FB07F548
:1015700006FB07F70CFB06F602FB0CFC16EB074616
:1015800045EB174516EB0C4645EB1C42121951F181
:10159000000148BF7047B619524141EB0101A3F168
:1015A000010370474FEA14454FEA114724EA054604
:1015B00021EA074C05FB07F106FB07F70CFB06F2D7
:1015C0004FF0000605FB0CFC12EB074241EB174104
:1015D00012EB0C4251EB1C4148BF7047921841EB93
:1015E0000101A3F101037047490050EAC12018BF6F
:1015F00004204A0D18BF40F0010040F2FF72B2EB28
:10160000515F08BF40F00200012808BF0520704765
:1016100030380A2801D201207047002070470000AE
:1016200010B500290AD00878002807D0054878446A
:10163000FFF7AEFB002801D0002010BD024878441F
:1016400010BD0000A60C00009E0C000021F000421E
:10165000A2F16052B2F5801F01F0004328BFD2F121
:101660007F6C0BD95FEA001C43EAC20242EB507068
:1016700018BF704728BF20F001007047B2F5801FE7
:10168000BCBF184670474FEA410C1CF5001F02D240
:10169000084600F0BEBD70B500F0B4FA0000008945
:1016A000FFF7F6BF4FF00040A0F580007047000044
:1016B00010B591EA030F48BF83F0004300F1FE82AA
:1016C000841A71EB030C05D2121943EB0C03001BB7
:1016D00061EB0C01DFF824E14FEA1154A4EB135C39
:1016E0001EEA430F18BF9EEA445F73D023EA0E033D
:1016F000DCF1200E21EA045143F4801332D322FAA4
:101700000CFE10EB0E0023FA0CFE41EB0E01CCF1A7
:10171000200E03FA0EFE10EB0E0051F10001B1F5A0
:10172000801FCCF1200E32D201EB045112FA0EF2DE
:10173000BDE8104058BF7047401C38BF5FEA420206
:1017400018BF7047002814BF20F0010041F10001CC
:101750004FEA410313F5001F38BF7047A1F1C041A4
:1017600000F09EBA012A43EB0302ACF1200CDCF13D
:101770001F0E32BF4FF0000E23FA0CF310EB0300E4
:1017800041EB0451B4EB115FD0D0A1EB045101F552
:10179000801149085FEA300001EB04510ED350F18B
:1017A000000038BF12FA0EFE08D1BDE81040C9E7AC
:1017B000401C38BF5FEA4202CAD1C3E7BDE810400F
:1017C0004FEA410313F5001F38BF7047A1F1C04134
:1017D00000F066BA9EEA445F08D011EA5E0FBDE8E9
:1017E000104004BF01F0004100207047BDE81040E8
:1017F00070B500F007FA00BF64FBBE3E0000E0FFDA
:101800002DE9C04130B4DFF8A0C23CEA111418BF82
:101810003CEA131400F0EC8081EA03051CEA111481
:1018200044EAD57418BF1CEA131500F0C780A4EB76
:1018300005044FF0004545EAC12145EAC32341EACA
:10184000505143EA525304F17F74994204F5003435
:101850004FEAC0204FEAC22208BF904200F09C80AD
:101860004FEA13650FF24016765D4FEA134506FB0B
:1018700005F7C7F1807706FB07F74FEAD737A7FBD5
:1018800003687642C8F58038A7FB06CE38BFA8F1BA
:10189000010807FB08E64FF0000EA6FB028CE6FBF2
:1018A00003CEDCF1000CCEF1004E38BFAEF1010EDC
:1018B000A6FB0C584FF000074FF00005E6FB0E8723
:1018C000A1FB08C6A0FB07CE16EB0E0645F10005EE
:1018D000E1FB076515F1E04E7EBFA4F580345FEAB9
:1018E00046066D4116F1800745F100054FEA1727BE
:1018F0004FEA066647EA0567A6F1DE46B6F1805F65
:101900004FEA15251FD9384624F0010C05EBC471A8
:10191000BCF1FE6F01EB0C1102D8F0BCBDE80081F8
:1019200024425CBF01F5801E9EEAC47F02D4F0BC55
:10193000BDE80081244238D4F0BCA1F1C041BDE82B
:10194000004100F0ADB94FEAD22242EA43524FEAD9
:10195000D323A7FB02864FEAD02040EA415007FB81
:1019600003661EEA0E0F4FEAD12105FB026658BF3F
:10197000A6EB0056B6EB00564FEA520E4EEAC37E77
:1019800018EB0E0E56EB530EBDD518EB02085E4158
:101990007F1C55F10005B6E74FF480154FF00007A6
:1019A0004FF000064FF00008ADE7F0BC4FF000002C
:1019B00001F1C04101F00041BDE8008111EA0C1FB6
:1019C0000CEA131500D00CE013EA0C1F00F0258080
:1019D0004FF00000F0BC81EA030101F00041BDE8D6
:1019E0000081F0BCBDE8004181EA030100F058B974
:1019F000F0BCBDE8004170B500F004F9097EFC3E82
:101A000000F007B881EA03014FF0000001F0004147
:101A1000704781EA030100F043B9F0BCBDE8004122
:101A20004FF0000021497047FFFDFBF9F7F5F4F294
:101A3000F0EEEDEBE9E8E6E4E3E1E0DEDDDBDAD869
:101A4000D7D5D4D3D1D0CFCDCCCBCAC8C7C6C5C4C7
:101A5000C2C1C0BFBEBDBCBBBAB9B8B7B6B5B4B3DE
:101A6000B2B1B0AFAEADACABAAA9A8A8A7A6A5A4C9
:101A7000A3A3A2A1A09F9F9E9D9C9C9B9A9999988D
:101A80009797969595949393929191908F8F8E8E30
:101A90008D8C8C8B8B8A89898888878786858584BD
:101AA00084838382828181800000FF070000F87FA9
:101AB000DFF848C170B51CEA111E1EBF1CEA1315E1
:101AC0009EEA0C0F95EA0C0F00F06F8081EA030488
:101AD00023EA4C134EEAD47E21EA4C1141F48011E2
:101AE00043F48013AE44A1FB024CA0FB0365AEF1AE
:101AF0007F7E361955EB0C05A1FB034C4CF100031E
:101B0000A0FB021C16EB0C06654153F100030942D1
:101B100018BF46F0010613F4007F0BD14FEA0331E2
:101B20004FEA0530340341EA155140EA16506FF090
:101B300003020AE04FEAC3214FEAC520F40241EA5A
:101B4000555140EA56506FF0020202EB2E4201EB73
:101B5000025585EACE710AD05FEA440C18BF24F022
:101B6000004450F1000041F1000120EAD47040F23D
:101B7000FE7C624500D270BDA84214BF4FF0804485
:101B80004FF04044002E08BF0024BEF1806FA8BF74
:101B9000A1F1C041BDE8704080F282804FF00000AA
:101BA00001F1C04101F0004170479EEA0C0F0CEAC0
:101BB000131518BF95EA0C0F06D04FF0000081EA0C
:101BC000030E0EF0004170BD00F01CF88900013ECC
:101BD00000F007B800F009B84FEA430C5FEA5C5C1C
:101BE00008D081EA030100F05BB84FEA410C5FEADC
:101BF0005C5CF6D14FF00000014970470000FF0720
:101C00000000F87F0EF1020E2EF0030E5EF8046B5A
:101C1000364205D4012A43EB030515F5001F12D8FF
:101C2000012841EB010C1CF5001F0CD80ED14FEA26
:101C3000D17C15F5001F0CEB4C0C0CF1020C08BF0D
:101C40004CEBD37C04E04FF0080C01E04FEAD37C6E
:101C50000CEB4C0526FA05F606F00706B6F1040C67
:101C600006D20EEB860CBDE870404CF0010C6047CC
:101C7000DFE80CF0090B02024FF000414FF00000CA
:101C8000A1F5002170BD19461046012851EB010451
:101C900018BFD4F5001484BF002001F0004170BDCE
:101CA0000808A0F500114FEA3101704710B591EA1C
:101CB000030F48BF83F000433FF502AD841A71EB78
:101CC000030C07D212198CF0004C43EB0C03001BE1
:101CD00061EB0C01DFF8A4E14FEA1154A4EB135CB3
:101CE0001EEA430F18BF9EEA445F00F0B08023EA6B
:101CF0006E03524221EA0451C3EB6E0338BF5B1EF0
:101D0000DCF1200E25D322FA0CFE10EB0E0043FA74
:101D10000CFE41EB0E01CCF1200E03FA0EFE10EB8F
:101D20000E0051F10001CCF1200E29D412FA0EF26E
:101D300001EB0451BDE8104058BF7047401C1CBF68
:101D4000B2F1004F704700280CBF491C20F0010081
:101D5000704712EB020E43EB030218BF4FF0010E67
:101D60004EEA4202ACF1200CDCF11E0E54D943FACB
:101D70000CFE10EB0E0051F1FF31CCF11E0ED5D54B
:101D80000EF1010E12FA0EFE404141EB010101EB92
:101D9000445C5FEA5C5C10D910EBDE7001EB04512F
:101DA00038BFBEF1004FBDE8104018BF7047002893
:101DB0000CBF491C20F00100704730D24FEAD42CF0
:101DC00011F5001124F400641BD0B1FA81F20B3A32
:101DD000A41AA41ED2F12003914030FA03F3194350
:101DE000904001EBCC71002C01EB0451BDE8104098
:101DF000A8BF704701F1C0414FF0000001F0004161
:101E00007047B0FA80F310FA03F100D110BDE41A64
:101E1000173C4805C90AE4E701EB045110BD49101D
:101E200001EB0451BDE810404FEA300002E04FF0F2
:101E3000000170474A0008BF0042F8D0B2F5001F09
:101E400028BF704701F000414FF0000070479EEA44
:101E5000445F07D011EA5E0FBDE8104004BF0021C7
:101E600000207047BDE8104070B5FFF7CBFE00BF03
:101E700040DFF63E83F00041104670470000E0FF6F
:101E800043004FEAD30C4FEA3C0C43401FBF4007CE
:101E90000CF1605113F0FE4F70471CF0006F03D13E
:101EA00000200CF0004170470CF0004343EA5070F2
:101EB00010B540EACC0000F066F900BF00000092C7
:101EC0004FEA0001FFF7ECBE4FF000414FF0000079
:101ED000A1F50021704700004FF47F0C1CEAD012DE
:101EE0001EBF1CEAD11392EA0C0F93EA0C0F00F00C
:101EF000858090EA010F48BF42F4807240F4000CE4
:101F000041F400002CF07F4120F07F4000B5814279
:101F1000A2EB03020FF2081CACEB504EC0F1000024
:101F20009EF800E04FEA4E0E00FB0EFC38BF490061
:101F30004FEA2C1C02F5FA020CFB0EF34FEACE1E00
:101F40004FEA112C4FEAC1210EEB635E42EB2242B5
:101F50000EFB0CFC4FEA1C5300FB03114FEA112C43
:101F60004FEA01310EFB0CFC4FEADC4C00FB0C117C
:101F7000C14228BF09184CEB03335DF804EB10EBAA
:101F8000410143EBC250B2F57C0F38BF704729D5F1
:101F900012F0F00F1CBF00F1C04000F0004070478D
:101FA000008182838485868788898B8C8D8E8F9132
:101FB0009293959697999A9C9D9FA0A2A3A5A7A856
:101FC000AAACAEB0B2B3B5B7B9BCBEC0C2C5C7C982
:101FD000CCCED1D4D7D9DCDFE2E6E9ECF0F3F7FAE6
:101FE000FE0000004FEA400C0CF1807CBCF17E4FFB
:101FF00028BF7047B0F1C04000F00BB990EA010F64
:102000000CEAD11348BF42F48072624538BF634581
:1020100007D213F47F0F16D080EA010000F00040D1
:10202000704710B500F0AFF8097EFC3E00F005B82F
:1020300080EA010000F00040704780EA010000F0F3
:10204000004000F0E6B812F47F0F04BF024870476A
:1020500080EA010000F0DDB80000C07FB0FA80F334
:1020600010FA03F2C3F19D030AD0D90501EB122047
:10207000530638BF704700F1010008BF20F001008F
:10208000704700004FF47F0C1CEAD0121EBF1CEA00
:10209000D11392EA0C0F93EA0C0F00F0478090EAFC
:1020A000010F48BF42F480724FF0004C4CEA002010
:1020B0004CEA012102EB0302A0FB0113A2F500028E
:1020C000002918BF43F001035B0028BF4FEA330328
:1020D00042EB22425FEA132C4CEBC2502EBFBCEB0A
:1020E000436FB2F57C0F70474FEA036CBCF1004FB1
:1020F00008BF20F00100B2F57C0F38BF70470BD548
:1021000082F0FF0212F5803FC8BF704700F1C04067
:10211000D8BF00F00040704700F5000C5FEA4C0C9F
:1021200048BF7047B0F1C04000F073B890EA010FAB
:102130000CEAD11348BF42F48072624538BF634550
:1021400004D280EA010000F00040704710B500F0B2
:102150001AF800BF8900013E00F007B800F009B886
:102160005FEA410C5FEA1C6C08D080EA010000F0D5
:1021700050B85FEA400C5FEA1C6CF6D14FF00040AB
:10218000A0F5800070470EF1020E2EF0030E5EF8EF
:10219000044B244204D44FEA4102B2F17F4F11D8DC
:1021A0004FEA4003B3F17F4F0CD80ED14FEAD07CF9
:1021B000B2F17F4F0CEB4C0C0CF1020C08BF4CEB56
:1021C000D17C04E04FF0080C01E04FEAD17C0CEB2D
:1021D0004C0324FA03F404F00704B4F1040C06D20F
:1021E0000EEB840CBDE810404CF0010C6047DFE8BA
:1021F0000CF0070802024FF00040A0F5800010BD6F
:102200000846420018BFD2F1807288BF00F000403B
:1022100010BDFF2141EAD050C0057047FEF752BB08
:1022200002400000000000A0000000000540000087
:10223000000000C8000000000C4000000000409CAE
:1022400000000000194000000020BCBE000000009B
:1022500034400000BFC91B8E00000004B5400000E0
:10226000504BCFD06607E2CF010000006C41000068
:102270003E8251AADFEEA73401000000D9420000DF
:10228000DCB5A0E23A301F97FFFFFFFFB445000026
:10229000FD25A0C8E9A3C14FFFFFFFFFFF3F0000DE
:1022A0000000008000000000FF3F000000000080F0
:1022B00000000000F02200000000001044000000B8
:1022C0000801000034230000440000106C020000EC
:1022D000240100001C00000043000000F8FFFFFF85
:1022E0000C0000000E0000000F0000002E00000097
:1022F00000000000000000000054454D5028274316
:10230000293D000000000000000000000000000067
:1023100000000000000000000000000000000000BD
:1023200000000000000000000000000000000000AD
:0423300000000000A9
:04000005000000CD2A
:00000001FF
