:020000040000FA
:100000006802001001030000150300001703000040
:10001000190300001B0300001D0300000000000086
:100020000000000000000000000000001F030000AE
:10003000210300000000000023030000250300004E
:100040002703000027030000270300002703000008
:1000500027030000270300002703000027030000F8
:1000600027030000CF010000270300002703000042
:1000700027030000270300002703000027030000D8
:1000800027030000270300002703000027030000C8
:1000900027030000270300002703000027030000B8
:1000A00027030000270300002703000027030000A8
:1000B0002703000027030000270300002703000098
:1000C00027030000270300002703000000F002F8C8
:1000D00000F03AF80AA090E8000C82448344AAF1A8
:1000E0000107DA4501D100F02FF8AFF2090EBAE8A6
:1000F0000F0013F0010F18BFFB1A43F0010318475C
:100100004C0200006C020000103A24BF78C878C18D
:10011000FAD8520724BF30C830C144BF04680C600D
:10012000704700000023002400250026103A28BF55
:1001300078C1FBD8520728BF30C148BF0B60704759
:100140001FB51FBD10B510BD00F09CF81146FFF79C
:10015000F7FF00F038F800F0BAF803B4FFF7F2FF49
:1001600003BC00F0C3F800004020404908604FF491
:1001700000303F49C8604FF000003E49C8604FF46E
:100180000050C8644FF0030048614EF6602088615B
:100190004FF4807048644FF0FF0008654FF0020094
:1001A00048604FF00900486000BF4FF0010101FABC
:1001B00000F14FEA50124FF0E02303EB8202C2F845
:1001C000001100BF7047FFF7CFFF00BFFEE7FF2021
:1001D000284908602848007808BB0846406C64300D
:1001E0004864FF2008650846406C4DF6A8618842C7
:1001F00006D3FF20214908701F4908701D49086572
:1002000000201F49086004E01D480068401C1C498C
:1002100008601B480068B0F5FA5FF5D325E0174881
:100220000078FF2821D11348406C64381149486494
:10023000FF2008650846406CB0F5407F07D80020D5
:100240000D4908700D490870FF200A490865002013
:100250000B49086004E00A480068401C084908602F
:1002600007480068B0F5FA5FF5D37047C4C00F4087
:1002700000C0024000800140040000100500001092
:1002800000000010754600F029F8AE4605006946EA
:10029000534620F00700854618B020B500F044F81A
:1002A000BDE820404FF000064FF000074FF0000877
:1002B0004FF0000B21F00701AC46ACE8C009ACE8F8
:1002C000C009ACE8C009ACE8C0098D4670470446D7
:1002D000AFF300802046FFF740FF00000048704762
:1002E000080000107047704770470000014918204F
:1002F000ABBEFEE72600020070470000FFFFFFFFD5
:100300000C484FF0553101600B484FF055310160FA
:100310000A480047FEE7FEE7FEE7FEE7FEE7FEE7E6
:10032000FEE7FEE7FEE7FEE705480649044A064BFE
:1003300070470000A8C10F40ACC10F40CD000000C5
:100340006800001068020010680000106C030000D4
:100350000000001008000000080100007403000005
:1003600008000010600200002401000000000000EE
:040370000000000089
:04000005000000CD2A
:00000001FF
